{
    "contractName": "ExerciseC6A",
    "abi": [
        {
            "inputs": [],
            "payable": false,
            "stateMutability": "nonpayable",
            "type": "constructor"
        },
        {
            "constant": true,
            "inputs": [],
            "name": "isOperational",
            "outputs": [
                {
                    "internalType": "bool",
                    "name": "",
                    "type": "bool"
                }
            ],
            "payable": false,
            "stateMutability": "view",
            "type": "function"
        },
        {
            "constant": true,
            "inputs": [
                {
                    "internalType": "address",
                    "name": "account",
                    "type": "address"
                }
            ],
            "name": "isUserRegistered",
            "outputs": [
                {
                    "internalType": "bool",
                    "name": "",
                    "type": "bool"
                }
            ],
            "payable": false,
            "stateMutability": "view",
            "type": "function"
        },
        {
            "constant": false,
            "inputs": [
                {
                    "internalType": "address",
                    "name": "account",
                    "type": "address"
                },
                {
                    "internalType": "bool",
                    "name": "isAdmin",
                    "type": "bool"
                }
            ],
            "name": "registerUser",
            "outputs": [],
            "payable": false,
            "stateMutability": "nonpayable",
            "type": "function"
        },
        {
            "constant": false,
            "inputs": [
                {
                    "internalType": "bool",
                    "name": "mode",
                    "type": "bool"
                }
            ],
            "name": "setOperatingStatus",
            "outputs": [],
            "payable": false,
            "stateMutability": "nonpayable",
            "type": "function"
        }
    ],
    "bytecode": "60806040526002805460ff1916600117905534801561001d57600080fd5b50600080546001600160a01b031916331790556103a28061003f6000396000f3fe608060405234801561001057600080fd5b506004361061004c5760003560e01c8063110466ed14610051578063163f752214610072578063951faf00146100ac578063cd905dff146100da575b600080fd5b6100706004803603602081101561006757600080fd5b503515156100e2565b005b6100986004803603602081101561008857600080fd5b50356001600160a01b0316610154565b604080519115158252519081900360200190f35b610070600480360360408110156100c257600080fd5b506001600160a01b03813516906020013515156101ba565b61009861031d565b6000546001600160a01b03163314610141576040805162461bcd60e51b815260206004820152601c60248201527f43616c6c6572206973206e6f7420636f6e7472616374206f776e657200000000604482015290519081900360640190fd5b6002805460ff1916911515919091179055565b60006001600160a01b03821661019b5760405162461bcd60e51b81526004018080602001828103825260228152602001806103276022913960400191505060405180910390fd5b506001600160a01b031660009081526001602052604090205460ff1690565b60025460ff166101fb5760405162461bcd60e51b81526004018080602001828103825260258152602001806103496025913960400191505060405180910390fd5b6000546001600160a01b0316331461025a576040805162461bcd60e51b815260206004820152601c60248201527f43616c6c6572206973206e6f7420636f6e7472616374206f776e657200000000604482015290519081900360640190fd5b6001600160a01b03821660009081526001602052604090205460ff16156102c8576040805162461bcd60e51b815260206004820152601b60248201527f5573657220697320616c726561647920726567697374657265642e0000000000604482015290519081900360640190fd5b604080518082018252600180825292151560208083019182526001600160a01b03909516600090815293909452912090518154925115156101000261ff001991151560ff199094169390931716919091179055565b60025460ff169056fe276163636f756e7427206d75737420626520612076616c696420616464726573732e436f6e74726163742069732063757272656e746c79206e6f74206f7065726174696f6e616ca265627a7a723158207f1efc4fd170f20ce38cd6c03537197d4344f99a919dab055d7c00e1f9abf97764736f6c63430005100032",
    "sourcePath": "c:/Users/jerom/source/BCND-C6-Exercises/contracts/ExerciseC6A.sol",
    "compiler": {
        "name": "solc",
        "version": "0.5.16+commit.9c3226ce"
    },
    "functionHashes": {
        "isOperational()": "cd905dff",
        "isUserRegistered(address)": "163f7522",
        "registerUser(address,bool)": "951faf00",
        "setOperatingStatus(bool)": "110466ed"
    },
    "gasEstimates": {
        "creation": {
            "codeDepositCost": "186000",
            "executionCost": "41891",
            "totalCost": "227891"
        },
        "external": {
            "isOperational()": "1054",
            "isUserRegistered(address)": "infinite",
            "registerUser(address,bool)": "infinite",
            "setOperatingStatus(bool)": "21849"
        }
    }
}