{
    "contractName": "ExerciseC6C",
    "abi": [
        {
            "inputs": [],
            "payable": false,
            "stateMutability": "nonpayable",
            "type": "constructor"
        },
        {
            "constant": false,
            "inputs": [
                {
                    "internalType": "string",
                    "name": "id",
                    "type": "string"
                },
                {
                    "internalType": "uint256",
                    "name": "amount",
                    "type": "uint256"
                }
            ],
            "name": "addSale",
            "outputs": [],
            "payable": false,
            "stateMutability": "nonpayable",
            "type": "function"
        },
        {
            "constant": true,
            "inputs": [
                {
                    "internalType": "string",
                    "name": "id",
                    "type": "string"
                }
            ],
            "name": "getEmployeeBonus",
            "outputs": [
                {
                    "internalType": "uint256",
                    "name": "",
                    "type": "uint256"
                }
            ],
            "payable": false,
            "stateMutability": "view",
            "type": "function"
        },
        {
            "constant": true,
            "inputs": [
                {
                    "internalType": "string",
                    "name": "id",
                    "type": "string"
                }
            ],
            "name": "isEmployeeRegistered",
            "outputs": [
                {
                    "internalType": "bool",
                    "name": "",
                    "type": "bool"
                }
            ],
            "payable": false,
            "stateMutability": "view",
            "type": "function"
        },
        {
            "constant": false,
            "inputs": [
                {
                    "internalType": "string",
                    "name": "id",
                    "type": "string"
                },
                {
                    "internalType": "bool",
                    "name": "isAdmin",
                    "type": "bool"
                },
                {
                    "internalType": "address",
                    "name": "wallet",
                    "type": "address"
                }
            ],
            "name": "registerEmployee",
            "outputs": [],
            "payable": false,
            "stateMutability": "nonpayable",
            "type": "function"
        }
    ],
    "bytecode": "608060405234801561001057600080fd5b50600080546001600160a01b03191633179055610ba8806100326000396000f3fe608060405234801561001057600080fd5b506004361061004c5760003560e01c8063228f25dc146100515780635cd25e53146100d2578063ea20f20a14610140578063f6f2dfcb146101c2575b600080fd5b6100d06004803603606081101561006757600080fd5b810190602081018135600160201b81111561008157600080fd5b82018360208201111561009357600080fd5b803590602001918460018302840111600160201b831117156100b457600080fd5b91935091508035151590602001356001600160a01b0316610242565b005b6100d0600480360360408110156100e857600080fd5b810190602081018135600160201b81111561010257600080fd5b82018360208201111561011457600080fd5b803590602001918460018302840111600160201b8311171561013557600080fd5b919350915035610436565b6101ae6004803603602081101561015657600080fd5b810190602081018135600160201b81111561017057600080fd5b82018360208201111561018257600080fd5b803590602001918460018302840111600160201b831117156101a357600080fd5b5090925090506104d3565b604080519115158252519081900360200190f35b610230600480360360208110156101d857600080fd5b810190602081018135600160201b8111156101f257600080fd5b82018360208201111561020457600080fd5b803590602001918460018302840111600160201b8311171561022557600080fd5b50909250905061050b565b60408051918252519081900360200190f35b6000546001600160a01b0316331461028f576040805162461bcd60e51b815260206004820152601c6024820152600080516020610b54833981519152604482015290519081900360640190fd5b6001848460405180838380828437919091019485525050604051928390036020019092206001015460ff161591506103109050576040805162461bcd60e51b815260206004820152601f60248201527f456d706c6f79656520697320616c726561647920726567697374657265642e00604482015290519081900360640190fd5b6040518060c0016040528085858080601f016020809104026020016040519081016040528093929190818152602001838380828437600092018290525093855250506001602084018190528615156040808601919091526060850184905260808501939093526001600160a01b03861660a09094019390935250518690869080838380828437919091019485525050604051602093819003840190208451805191946103c194508593500190610a97565b506020820151600182018054604085015160ff199091169215159290921761ff00191661010092151592909202919091179055606082015160028201556080820151600382015560a090910151600490910180546001600160a01b0319166001600160a01b0390921691909117905550505050565b6000546001600160a01b03163314610483576040805162461bcd60e51b815260206004820152601c6024820152600080516020610b54833981519152604482015290519081900360640190fd5b6104ce83838080601f0160208091040260200160405190810160405280939291908181526020018383808284376000920191909152508592506104c9915082905061058b565b610646565b505050565b60006001838360405180838380828437919091019485525050604051928390036020019092206001015460ff16925050505b92915050565b600080546001600160a01b03163314610559576040805162461bcd60e51b815260206004820152601c6024820152600080516020610b54833981519152604482015290519081900360640190fd5b600183836040518083838082843791909101948552505060405192839003602001909220600301549250505092915050565b600080546001600160a01b031633146105d9576040805162461bcd60e51b815260206004820152601c6024820152600080516020610b54833981519152604482015290519081900360640190fd5b606482101561060b5761060460646105f884600563ffffffff6108f916565b9063ffffffff61095916565b9050610641565b6101f482101561062b5761060460646105f884600763ffffffff6108f916565b61060460646105f884600a63ffffffff6108f916565b919050565b6000546001600160a01b03163314610693576040805162461bcd60e51b815260206004820152601c6024820152600080516020610b54833981519152604482015290519081900360640190fd5b6001836040518082805190602001908083835b602083106106c55780518252601f1990920191602091820191016106a6565b51815160209384036101000a600019018019909216911617905292019485525060405193849003019092206001015460ff16915061074c9050576040805162461bcd60e51b815260206004820152601b60248201527f456d706c6f796565206973206e6f7420726567697374657265642e0000000000604482015290519081900360640190fd5b6107ba826001856040518082805190602001908083835b602083106107825780518252601f199092019160209182019101610763565b51815160209384036101000a60001901801990921691161790529201948552506040519384900301909220600201549291505061099b565b6001846040518082805190602001908083835b602083106107ec5780518252601f1990920191602091820191016107cd565b51815160209384036101000a60001901801990921691161790529201948552506040519384900381018420600201949094555050845161088e92849260019288928291908401908083835b602083106108565780518252601f199092019160209182019101610837565b51815160209384036101000a60001901801990921691161790529201948552506040519384900301909220600301549291505061099b565b6001846040518082805190602001908083835b602083106108c05780518252601f1990920191602091820191016108a1565b51815160209384036101000a60001901801990921691161790529201948552506040519384900301909220600301929092555050505050565b60008261090857506000610505565b8282028284828161091557fe5b04146109525760405162461bcd60e51b8152600401808060200182810382526021815260200180610b336021913960400191505060405180910390fd5b9392505050565b600061095283836040518060400160405280601a81526020017f536166654d6174683a206469766973696f6e206279207a65726f0000000000008152506109f5565b600082820183811015610952576040805162461bcd60e51b815260206004820152601b60248201527f536166654d6174683a206164646974696f6e206f766572666c6f770000000000604482015290519081900360640190fd5b60008183610a815760405162461bcd60e51b81526004018080602001828103825283818151815260200191508051906020019080838360005b83811015610a46578181015183820152602001610a2e565b50505050905090810190601f168015610a735780820380516001836020036101000a031916815260200191505b509250505060405180910390fd5b506000838581610a8d57fe5b0495945050505050565b828054600181600116156101000203166002900490600052602060002090601f016020900481019282601f10610ad857805160ff1916838001178555610b05565b82800160010185558215610b05579182015b82811115610b05578251825591602001919060010190610aea565b50610b11929150610b15565b5090565b610b2f91905b80821115610b115760008155600101610b1b565b9056fe536166654d6174683a206d756c7469706c69636174696f6e206f766572666c6f7743616c6c6572206973206e6f7420636f6e7472616374206f776e657200000000a265627a7a7231582036dd43aa5f6e25a1dff995c5bbafaca126dea3be456ad932636fe487fb129c8f64736f6c63430005100032",
    "sourcePath": "c:/Users/jerom/source/BCND-C6-Exercises/contracts/ExerciseC6C/ExerciseC6C.sol",
    "compiler": {
        "name": "solc",
        "version": "0.5.16+commit.9c3226ce"
    },
    "functionHashes": {
        "addSale(string,uint256)": "5cd25e53",
        "getEmployeeBonus(string)": "f6f2dfcb",
        "isEmployeeRegistered(string)": "ea20f20a",
        "registerEmployee(string,bool,address)": "228f25dc"
    },
    "gasEstimates": {
        "creation": {
            "codeDepositCost": "596800",
            "executionCost": "21467",
            "totalCost": "618267"
        },
        "external": {
            "addSale(string,uint256)": "infinite",
            "getEmployeeBonus(string)": "infinite",
            "isEmployeeRegistered(string)": "infinite",
            "registerEmployee(string,bool,address)": "infinite"
        },
        "internal": {
            "calculateBonus(uint256)": "infinite",
            "updateEmployee(string memory,uint256,uint256)": "infinite"
        }
    }
}