{
  "contractName": "ExerciseC6CApp",
  "abi": [
    {
      "inputs": [],
      "payable": false,
      "stateMutability": "nonpayable",
      "type": "constructor"
    },
    {
      "constant": false,
      "inputs": [
        {
          "internalType": "string",
          "name": "id",
          "type": "string"
        },
        {
          "internalType": "uint256",
          "name": "amount",
          "type": "uint256"
        }
      ],
      "name": "addSale",
      "outputs": [],
      "payable": false,
      "stateMutability": "nonpayable",
      "type": "function"
    }
  ],
  "bytecode": "0x608060405234801561001057600080fd5b50336000806101000a81548173ffffffffffffffffffffffffffffffffffffffff021916908373ffffffffffffffffffffffffffffffffffffffff1602179055506105e6806100606000396000f3fe608060405234801561001057600080fd5b506004361061002b5760003560e01c80635cd25e5314610030575b600080fd5b6100b16004803603604081101561004657600080fd5b810190808035906020019064010000000081111561006357600080fd5b82018360208201111561007557600080fd5b8035906020019184600183028401116401000000008311171561009757600080fd5b9091929391929390803590602001909291905050506100b3565b005b6000809054906101000a900473ffffffffffffffffffffffffffffffffffffffff1673ffffffffffffffffffffffffffffffffffffffff163373ffffffffffffffffffffffffffffffffffffffff1614610175576040517f08c379a000000000000000000000000000000000000000000000000000000000815260040180806020018281038252601c8152602001807f43616c6c6572206973206e6f7420636f6e7472616374206f776e65720000000081525060200191505060405180910390fd5b6101cc83838080601f016020809104026020016040519081016040528093929190818152602001838380828437600081840152601f19601f82011690508083019250505050505050826101c7846101d1565b610333565b505050565b60008060009054906101000a900473ffffffffffffffffffffffffffffffffffffffff1673ffffffffffffffffffffffffffffffffffffffff163373ffffffffffffffffffffffffffffffffffffffff1614610295576040517f08c379a000000000000000000000000000000000000000000000000000000000815260040180806020018281038252601c8152602001807f43616c6c6572206973206e6f7420636f6e7472616374206f776e65720000000081525060200191505060405180910390fd5b60648210156102cc576102c560646102b76005856103fa90919063ffffffff16565b61048090919063ffffffff16565b905061032e565b6101f4821015610304576102fd60646102ef6007856103fa90919063ffffffff16565b61048090919063ffffffff16565b905061032e565b61032b606461031d600a856103fa90919063ffffffff16565b61048090919063ffffffff16565b90505b919050565b6000809054906101000a900473ffffffffffffffffffffffffffffffffffffffff1673ffffffffffffffffffffffffffffffffffffffff163373ffffffffffffffffffffffffffffffffffffffff16146103f5576040517f08c379a000000000000000000000000000000000000000000000000000000000815260040180806020018281038252601c8152602001807f43616c6c6572206973206e6f7420636f6e7472616374206f776e65720000000081525060200191505060405180910390fd5b505050565b60008083141561040d576000905061047a565b600082840290508284828161041e57fe5b0414610475576040517f08c379a00000000000000000000000000000000000000000000000000000000081526004018080602001828103825260218152602001806105916021913960400191505060405180910390fd5b809150505b92915050565b60006104c283836040518060400160405280601a81526020017f536166654d6174683a206469766973696f6e206279207a65726f0000000000008152506104ca565b905092915050565b60008083118290610576576040517f08c379a00000000000000000000000000000000000000000000000000000000081526004018080602001828103825283818151815260200191508051906020019080838360005b8381101561053b578082015181840152602081019050610520565b50505050905090810190601f1680156105685780820380516001836020036101000a031916815260200191505b509250505060405180910390fd5b50600083858161058257fe5b04905080915050939250505056fe536166654d6174683a206d756c7469706c69636174696f6e206f766572666c6f77a265627a7a7231582007355e6ffd5a50657d51b9eb1bc8d5294b5c74e428cc63615b4a10613b55081a64736f6c63430005100032",
  "source": "pragma solidity 0.5.16;\n\n// It's important to avoid vulnerabilities due to numeric overflow bugs\n// OpenZeppelin's SafeMath library, when used correctly, protects agains such bugs\n// More info: https://www.nccgroup.trust/us/about-us/newsroom-and-events/blog/2018/november/smart-contract-insecurity-bad-arithmetic/\n\nimport \"../../node_modules/openzeppelin-solidity/contracts/math/SafeMath.sol\";\n\ncontract ExerciseC6CApp {\n    using SafeMath for uint256; // Allow SafeMath functions to be called for all uint256 types (similar to \"prototype\" in Javascript)\n\n    address private contractOwner; // Account used to deploy contract\n\n    modifier requireContractOwner() {\n        require(msg.sender == contractOwner, \"Caller is not contract owner\");\n        _;\n    }\n\n    constructor() public {\n        contractOwner = msg.sender;\n    }\n\n    function calculateBonus(uint256 sales)\n        internal\n        view\n        requireContractOwner\n        returns (uint256)\n    {\n        if (sales < 100) {\n            return sales.mul(5).div(100);\n        } else if (sales < 500) {\n            return sales.mul(7).div(100);\n        } else {\n            return sales.mul(10).div(100);\n        }\n    }\n\n    function addSale(string calldata id, uint256 amount)\n        external\n        requireContractOwner\n    {\n        updateEmployee(id, amount, calculateBonus(amount));\n    }\n\n    function updateEmployee(\n        string memory id,\n        uint256 sales,\n        uint256 bonus\n    ) internal requireContractOwner {}\n}\n",
  "sourcePath": "C:\\Users\\jerom\\source\\BCND-C6-Exercises\\contracts\\ExerciseC6C\\ExerciseC6CApp.sol",
  "compiler": {
    "name": "solc",
    "version": "0.5.16+commit.9c3226ce.Emscripten.clang"
  },
  "schemaVersion": "3.4.3",
  "updatedAt": "2021-10-21T18:31:04.586Z",
  "devdoc": {
    "methods": {}
  },
  "userdoc": {
    "methods": {}
  }
}