{
  "contractName": "ExerciseC6C",
  "abi": [
    {
      "inputs": [],
      "payable": false,
      "stateMutability": "nonpayable",
      "type": "constructor"
    },
    {
      "constant": true,
      "inputs": [
        {
          "internalType": "string",
          "name": "id",
          "type": "string"
        }
      ],
      "name": "isEmployeeRegistered",
      "outputs": [
        {
          "internalType": "bool",
          "name": "",
          "type": "bool"
        }
      ],
      "payable": false,
      "stateMutability": "view",
      "type": "function"
    },
    {
      "constant": false,
      "inputs": [
        {
          "internalType": "string",
          "name": "id",
          "type": "string"
        },
        {
          "internalType": "bool",
          "name": "isAdmin",
          "type": "bool"
        },
        {
          "internalType": "address",
          "name": "wallet",
          "type": "address"
        }
      ],
      "name": "registerEmployee",
      "outputs": [],
      "payable": false,
      "stateMutability": "nonpayable",
      "type": "function"
    },
    {
      "constant": true,
      "inputs": [
        {
          "internalType": "string",
          "name": "id",
          "type": "string"
        }
      ],
      "name": "getEmployeeBonus",
      "outputs": [
        {
          "internalType": "uint256",
          "name": "",
          "type": "uint256"
        }
      ],
      "payable": false,
      "stateMutability": "view",
      "type": "function"
    },
    {
      "constant": false,
      "inputs": [
        {
          "internalType": "string",
          "name": "id",
          "type": "string"
        },
        {
          "internalType": "uint256",
          "name": "amount",
          "type": "uint256"
        }
      ],
      "name": "addSale",
      "outputs": [],
      "payable": false,
      "stateMutability": "nonpayable",
      "type": "function"
    }
  ],
  "bytecode": "0x608060405234801561001057600080fd5b50336000806101000a81548173ffffffffffffffffffffffffffffffffffffffff021916908373ffffffffffffffffffffffffffffffffffffffff160217905550610fdd806100606000396000f3fe608060405234801561001057600080fd5b506004361061004c5760003560e01c8063228f25dc146100515780635cd25e53146100f6578063ea20f20a14610179578063f6f2dfcb1461020a575b600080fd5b6100f46004803603606081101561006757600080fd5b810190808035906020019064010000000081111561008457600080fd5b82018360208201111561009657600080fd5b803590602001918460018302840111640100000000831117156100b857600080fd5b9091929391929390803515159060200190929190803573ffffffffffffffffffffffffffffffffffffffff169060200190929190505050610297565b005b6101776004803603604081101561010c57600080fd5b810190808035906020019064010000000081111561012957600080fd5b82018360208201111561013b57600080fd5b8035906020019184600183028401116401000000008311171561015d57600080fd5b90919293919293908035906020019092919050505061057a565b005b6101f06004803603602081101561018f57600080fd5b81019080803590602001906401000000008111156101ac57600080fd5b8201836020820111156101be57600080fd5b803590602001918460018302840111640100000000831117156101e057600080fd5b9091929391929390505050610698565b604051808215151515815260200191505060405180910390f35b6102816004803603602081101561022057600080fd5b810190808035906020019064010000000081111561023d57600080fd5b82018360208201111561024f57600080fd5b8035906020019184600183028401116401000000008311171561027157600080fd5b90919293919293905050506106da565b6040518082815260200191505060405180910390f35b6000809054906101000a900473ffffffffffffffffffffffffffffffffffffffff1673ffffffffffffffffffffffffffffffffffffffff163373ffffffffffffffffffffffffffffffffffffffff1614610359576040517f08c379a000000000000000000000000000000000000000000000000000000000815260040180806020018281038252601c8152602001807f43616c6c6572206973206e6f7420636f6e7472616374206f776e65720000000081525060200191505060405180910390fd5b60018484604051808383808284378083019250505092505050908152602001604051809103902060010160009054906101000a900460ff1615610404576040517f08c379a000000000000000000000000000000000000000000000000000000000815260040180806020018281038252601f8152602001807f456d706c6f79656520697320616c726561647920726567697374657265642e0081525060200191505060405180910390fd5b6040518060c0016040528085858080601f016020809104026020016040519081016040528093929190818152602001838380828437600081840152601f19601f820116905080830192505050505050508152602001600115158152602001831515815260200160008152602001600081526020018273ffffffffffffffffffffffffffffffffffffffff1681525060018585604051808383808284378083019250505092505050908152602001604051809103902060008201518160000190805190602001906104d5929190610ee2565b5060208201518160010160006101000a81548160ff02191690831515021790555060408201518160010160016101000a81548160ff021916908315150217905550606082015181600201556080820151816003015560a08201518160040160006101000a81548173ffffffffffffffffffffffffffffffffffffffff021916908373ffffffffffffffffffffffffffffffffffffffff16021790555090505050505050565b6000809054906101000a900473ffffffffffffffffffffffffffffffffffffffff1673ffffffffffffffffffffffffffffffffffffffff163373ffffffffffffffffffffffffffffffffffffffff161461063c576040517f08c379a000000000000000000000000000000000000000000000000000000000815260040180806020018281038252601c8152602001807f43616c6c6572206973206e6f7420636f6e7472616374206f776e65720000000081525060200191505060405180910390fd5b61069383838080601f016020809104026020016040519081016040528093929190818152602001838380828437600081840152601f19601f820116905080830192505050505050508261068e846107d1565b610933565b505050565b600060018383604051808383808284378083019250505092505050908152602001604051809103902060010160009054906101000a900460ff16905092915050565b60008060009054906101000a900473ffffffffffffffffffffffffffffffffffffffff1673ffffffffffffffffffffffffffffffffffffffff163373ffffffffffffffffffffffffffffffffffffffff161461079e576040517f08c379a000000000000000000000000000000000000000000000000000000000815260040180806020018281038252601c8152602001807f43616c6c6572206973206e6f7420636f6e7472616374206f776e65720000000081525060200191505060405180910390fd5b60018383604051808383808284378083019250505092505050908152602001604051809103902060030154905092915050565b60008060009054906101000a900473ffffffffffffffffffffffffffffffffffffffff1673ffffffffffffffffffffffffffffffffffffffff163373ffffffffffffffffffffffffffffffffffffffff1614610895576040517f08c379a000000000000000000000000000000000000000000000000000000000815260040180806020018281038252601c8152602001807f43616c6c6572206973206e6f7420636f6e7472616374206f776e65720000000081525060200191505060405180910390fd5b60648210156108cc576108c560646108b7600585610cc490919063ffffffff16565b610d4a90919063ffffffff16565b905061092e565b6101f4821015610904576108fd60646108ef600785610cc490919063ffffffff16565b610d4a90919063ffffffff16565b905061092e565b61092b606461091d600a85610cc490919063ffffffff16565b610d4a90919063ffffffff16565b90505b919050565b6000809054906101000a900473ffffffffffffffffffffffffffffffffffffffff1673ffffffffffffffffffffffffffffffffffffffff163373ffffffffffffffffffffffffffffffffffffffff16146109f5576040517f08c379a000000000000000000000000000000000000000000000000000000000815260040180806020018281038252601c8152602001807f43616c6c6572206973206e6f7420636f6e7472616374206f776e65720000000081525060200191505060405180910390fd5b6001836040518082805190602001908083835b60208310610a2b5780518252602082019150602081019050602083039250610a08565b6001836020036101000a038019825116818451168082178552505050505050905001915050908152602001604051809103902060010160009054906101000a900460ff16610ae1576040517f08c379a000000000000000000000000000000000000000000000000000000000815260040180806020018281038252601b8152602001807f456d706c6f796565206973206e6f7420726567697374657265642e000000000081525060200191505060405180910390fd5b610b60826001856040518082805190602001908083835b60208310610b1b5780518252602082019150602081019050602083039250610af8565b6001836020036101000a038019825116818451168082178552505050505050905001915050908152602001604051809103902060020154610d9490919063ffffffff16565b6001846040518082805190602001908083835b60208310610b965780518252602082019150602081019050602083039250610b73565b6001836020036101000a038019825116818451168082178552505050505050905001915050908152602001604051809103902060020181905550610c4f816001856040518082805190602001908083835b60208310610c0a5780518252602082019150602081019050602083039250610be7565b6001836020036101000a038019825116818451168082178552505050505050905001915050908152602001604051809103902060030154610d9490919063ffffffff16565b6001846040518082805190602001908083835b60208310610c855780518252602082019150602081019050602083039250610c62565b6001836020036101000a038019825116818451168082178552505050505050905001915050908152602001604051809103902060030181905550505050565b600080831415610cd75760009050610d44565b6000828402905082848281610ce857fe5b0414610d3f576040517f08c379a0000000000000000000000000000000000000000000000000000000008152600401808060200182810382526021815260200180610f886021913960400191505060405180910390fd5b809150505b92915050565b6000610d8c83836040518060400160405280601a81526020017f536166654d6174683a206469766973696f6e206279207a65726f000000000000815250610e1c565b905092915050565b600080828401905083811015610e12576040517f08c379a000000000000000000000000000000000000000000000000000000000815260040180806020018281038252601b8152602001807f536166654d6174683a206164646974696f6e206f766572666c6f77000000000081525060200191505060405180910390fd5b8091505092915050565b60008083118290610ec8576040517f08c379a00000000000000000000000000000000000000000000000000000000081526004018080602001828103825283818151815260200191508051906020019080838360005b83811015610e8d578082015181840152602081019050610e72565b50505050905090810190601f168015610eba5780820380516001836020036101000a031916815260200191505b509250505060405180910390fd5b506000838581610ed457fe5b049050809150509392505050565b828054600181600116156101000203166002900490600052602060002090601f016020900481019282601f10610f2357805160ff1916838001178555610f51565b82800160010185558215610f51579182015b82811115610f50578251825591602001919060010190610f35565b5b509050610f5e9190610f62565b5090565b610f8491905b80821115610f80576000816000905550600101610f68565b5090565b9056fe536166654d6174683a206d756c7469706c69636174696f6e206f766572666c6f77a265627a7a72315820371235c6d945c07d72490bc225100d8639185b233e0fbb98deacd70388b38bc764736f6c63430005100032",
  "source": "pragma solidity 0.5.16;\n\n// It's important to avoid vulnerabilities due to numeric overflow bugs\n// OpenZeppelin's SafeMath library, when used correctly, protects agains such bugs\n// More info: https://www.nccgroup.trust/us/about-us/newsroom-and-events/blog/2018/november/smart-contract-insecurity-bad-arithmetic/\n\nimport \"../../node_modules/openzeppelin-solidity/contracts/math/SafeMath.sol\";\n\n\ncontract ExerciseC6C {\n    using SafeMath for uint256; // Allow SafeMath functions to be called for all uint256 types (similar to \"prototype\" in Javascript)\n\n    /********************************************************************************************/\n    /*                                       DATA VARIABLES                                     */\n    /********************************************************************************************/\n\n    struct Profile {\n        string id;\n        bool isRegistered;\n        bool isAdmin;\n        uint256 sales;\n        uint256 bonus;\n        address wallet;\n    }\n\n    address private contractOwner;              // Account used to deploy contract\n    mapping(string => Profile) employees;      // Mapping for storing employees\n\n    /********************************************************************************************/\n    /*                                       EVENT DEFINITIONS                                  */\n    /********************************************************************************************/\n\n    // No events\n\n    /**\n    * @dev Constructor\n    *      The deploying account becomes contractOwner\n    */\n    constructor\n                                (\n                                ) \n                                public \n    {\n        contractOwner = msg.sender;\n    }\n\n    /********************************************************************************************/\n    /*                                       FUNCTION MODIFIERS                                 */\n    /********************************************************************************************/\n\n    // Modifiers help avoid duplication of code. They are typically used to validate something\n    // before a function is allowed to be executed.\n\n    /**\n    * @dev Modifier that requires the \"ContractOwner\" account to be the function caller\n    */\n    modifier requireContractOwner()\n    {\n        require(msg.sender == contractOwner, \"Caller is not contract owner\");\n        _;\n    }\n\n    /********************************************************************************************/\n    /*                                       UTILITY FUNCTIONS                                  */\n    /********************************************************************************************/\n\n   /**\n    * @dev Check if an employee is registered\n    *\n    * @return A bool that indicates if the employee is registered\n    */   \n    function isEmployeeRegistered\n                            (\n                                string calldata id\n                            )\n                            external\n                            view\n                            returns(bool)\n    {\n        return employees[id].isRegistered;\n    }\n\n    /********************************************************************************************/\n    /*                                     SMART CONTRACT FUNCTIONS                             */\n    /********************************************************************************************/\n\n    function registerEmployee\n                                (\n                                    string calldata id,\n                                    bool isAdmin,\n                                    address wallet\n                                )\n                                external\n                                requireContractOwner\n    {\n        require(!employees[id].isRegistered, \"Employee is already registered.\");\n\n        employees[id] = Profile({\n                                        id: id,\n                                        isRegistered: true,\n                                        isAdmin: isAdmin,\n                                        sales: 0,\n                                        bonus: 0,\n                                        wallet: wallet\n                                });\n    }\n\n    function getEmployeeBonus\n                            (\n                                string calldata id\n                            )\n                            external\n                            view\n                            requireContractOwner\n                            returns(uint256)\n    {\n        return employees[id].bonus;\n    }\n\n    function updateEmployee\n                                (\n                                    string memory id,\n                                    uint256 sales,\n                                    uint256 bonus\n\n                                )\n                                internal\n                                requireContractOwner\n    {\n        require(employees[id].isRegistered, \"Employee is not registered.\");\n\n        employees[id].sales = employees[id].sales.add(sales);\n        employees[id].bonus = employees[id].bonus.add(bonus);\n\n    }\n\n    function calculateBonus\n                            (\n                                uint256 sales\n                            )\n                            internal\n                            view\n                            requireContractOwner\n                            returns(uint256)\n    {\n        if (sales < 100) {\n            return sales.mul(5).div(100);\n        }\n        else if (sales < 500) {\n            return sales.mul(7).div(100);\n        }\n        else {\n            return sales.mul(10).div(100);\n        }\n    }\n\n    function addSale\n                                (\n                                    string calldata id,\n                                    uint256 amount\n                                )\n                                external\n                                requireContractOwner\n    {\n        updateEmployee(\n                        id,\n                        amount,\n                        calculateBonus(amount)\n        );\n    }\n\n\n}",
  "sourcePath": "C:\\Users\\jerom\\source\\BCND-C6-Exercises\\contracts\\ExerciseC6C\\ExerciseC6C.sol",
  "compiler": {
    "name": "solc",
    "version": "0.5.16+commit.9c3226ce.Emscripten.clang"
  },
  "schemaVersion": "3.4.3",
  "updatedAt": "2021-10-21T18:11:46.598Z",
  "devdoc": {
    "methods": {
      "constructor": {
        "details": "Constructor     The deploying account becomes contractOwner"
      },
      "isEmployeeRegistered(string)": {
        "details": "Check if an employee is registered",
        "return": "A bool that indicates if the employee is registered"
      }
    }
  },
  "userdoc": {
    "methods": {
      "registerEmployee(string,bool,address)": {
        "notice": "*****************************************************************************************"
      }
    }
  }
}